:1000000012C019C018C017C016C015C014C013C044
:1000100012C011C010C00FC00EC00DC00CC00BC06C
:100020000AC009C008C011241FBECFE5D4E0DEBF5E
:10003000CDBF02D03BC0E4CF8FEF81BB84BB91E04A
:1000400092BB85BB80E090E020E030E040E050E0F3
:1000500070E060E0B1E0A2E0F1E0E0E007C080E045
:1000600090E004C080E090E020E030E0989916C075
:100070002F5F3F4F253F81E038078CF34115510535
:1000800089F782B38B2782BB82B38A2782BB80E049
:1000900090E020E030E04F2F5E2FE8CF0196853FC3
:1000A000C1E09C071CF3472F562FE0CFF894FFCFF9
:00000001FF
