:1000000012C021C020C01FC01EC01DC01CC01BC00C
:100010001AC019C018C017C016C015C014C013C02C
:1000200012C011C010C011241FBECFE5D4E0DEBF46
:10003000CDBF20E0A0E6B0E001C01D92A037B2071E
:10004000E1F7B0D0C9C0DCCFFC01EE0FFF1FE859CB
:10005000FF4F208131812F5F3F4F31832083253F28
:1000600031400CF484C0FC01EE0FFF1FE459FF4F38
:1000700020813181232B09F05BC0FC01EE0FFF1FB3
:10008000E459FF4F21E030E0318320830097A9F449
:1000900042B3E4E6F0E0008002C0220F331F0A946E
:1000A000E2F7242B22BB208131812F5F3F4F318328
:1000B00020832730310594F43BC08130910509F04D
:1000C0003FC048B321E030E00090660002C0220F3C
:1000D000331F0A94E2F7242B28BB32C02AE030E019
:1000E0004FEF009749F412BAEFE0F7E23197F1F7DA
:1000F00000C0000042BB0BC08130910589F518BAE1
:10010000EFE0F7E23197F1F700C0000048BBEFE005
:10011000F7E23197F1F700C000002150310909F7EB
:10012000E4E6F0E0118210821382128212BA18BA49
:10013000880F991FFC01E859FF4F11821082089522
:10014000FC01EE0FFF1FEC59FF4F208131812F5F23
:100150003F4F31832083273031050CF0BFCFE8CFEC
:10016000EFE0F7E23197F1F700C00000D0CF08953B
:10017000FC01EE0FFF1FE05AFF4F208131812F5FFE
:100180003F4F31832083253F31405CF0880F991F1A
:10019000FC01E459FF4F118210821092610010920D
:1001A000600008958FEF87BB18BA81BB12BA84BB79
:1001B00085BB989904C080E090E046DF03C080E0F2
:1001C00090E0D6DF9B9904C081E090E03DDFF1CF65
:0C01D00081E090E0CDDFEDCFF894FFCF90
:00000001FF
