S0180000427574746F6E5F4C6962726172795F322E73726563CB
S113000012C021C020C01FC01EC01DC01CC01BC008
S11300101AC019C018C017C016C015C014C013C028
S113002012C011C010C011241FBECFE5D4E0DEBF42
S1130030CDBF20E0A0E6B0E001C01D92A736B20714
S1130040E1F789D098C0DCCF70E06095709502C06C
S1130050759567954A95E2F760FF2AC0BC01660F63
S1130060771FFB01EC59FF4F408151814F5F5F4F78
S113007051834083FB01EE59FF4F118210822417F4
S11300803507ACF5FC01EA59FF4F2081211107C067
S1130090FC01EA59FF4F21E0208381E00895880F95
S11300A0991FFC01EC59FF4F1182108280E00895E2
S11300B0BC01660F771FFB01EE59FF4F4081518150
S11300C04F5F5F4F51834083FB01EC59FF4F118217
S11300D01082241735076CF4FC01EA59FF4F108293
S11300E0FB01EE59FF4F1182108280E0089580E0F9
S11300F0089580E0089522B381E090E000906000CC
S113010002C0880F991F0A94E2F7822B82BB809168
S1130110600090916100019690936100809360006B
S11301200897C4F08AE090E02FEF12BAEFE0F7E20C
S11301303197F1F700C0000022BBEFE0F7E23197FE
S1130140F1F700C00000019781F71092610010924E
S1130150600012BA08958FEF81BB12BA14BA85BB3E
S113016063B324E630E040E080E090E06DDF882374
S10D0170B9F3C1DFF5CFF894FFCF17
S9030000FC
