S0160000427574746F6E5F4C6962726172792E737265635E
S113000012C021C020C01FC01EC01DC01CC01BC008
S11300101AC019C018C017C016C015C014C013C028
S113002012C011C010C011241FBECFE5D4E0DEBF42
S1130030CDBF20E0A0E6B0E001C01D92A437B20716
S1130040E1F759D098C0DCCF70E06095709502C09C
S1130050759567954A95E2F760FF2AC0BC01660F63
S1130060771FFB01E859FF4F408151814F5F5F4F7C
S113007051834083FB01E05AFF4F11821082241701
S11300803507ACF5FC01E059FF4F2081211107C071
S1130090FC01E059FF4F21E0208381E00895880F9F
S11300A0991FFC01E859FF4F1182108280E00895E6
S11300B0BC01660F771FFB01E05AFF4F408151815D
S11300C04F5F5F4F51834083FB01E859FF4F11821B
S11300D01082241735076CF4FC01E059FF4F10829D
S11300E0FB01E05AFF4F1182108280E0089580E006
S11300F0089580E008958FEF81BB12BA14BA85BBCE
S113010001E012E06894FF24F2F8D02FC12F689424
S1130110EE24E3F863B324E630E040E080E090E0CE
S113012093DF882319F082B3802782BB63B324E66C
S113013030E04D2F81E090E087DF882319F082B30F
S1130140812782BB63B324E630E04C2F82E090E049
S11301507BDF882319F082B38F2582BB63B324E647
S113016030E043E083E090E06FDF882399F282B3CC
S10D01708E2582BBCFCFF894FFCF99
S9030000FC
