S011000044616E6E695F4C43442E73726563F7
S113000012C024C023C022C021C020C01FC01EC0F3
S11300101DC01CC01BC01AC019C018C017C016C010
S113002015C014C013C011241FBECFE5D4E0DEBF39
S1130030CDBF10E0A0E6B0E0E6E8F1E002C0059034
S11300400D92A037B107D9F790D09BC0D9CF97981C
S113005088230CF4979A969886FD969A959885FD30
S1130060959A949884FD949A939A82E08A95F1F7EC
S113007000C093980895CF93C82F9298E8DF8C2FEF
S11300808295807FE4DF85E88A95F1F70000C4302B
S113009018F0C03850F007C08FE99FE00197F1F7DE
S11300A000C00000C0E8C0936000CF910895CF93D2
S11300B0C82F929ACCDF8C2F8295807FC8DF85E889
S11300C08A95F1F70000809160008F5F8093600053
S11300D0803921F0803D21F480E801C080ECCBDF41
S11300E0CF910895CF93DF93EC018881882329F081
S11300F02196DDDF89918111FCCFDF91CF910895A5
S11301008C9A8D9A8E9A8F9A8A9A8B9A93989298AF
S11301108FE295E70197F1F700C0000080E397DFD5
S113012087E090E20197F1F700C0000080E38FDFE1
S113013087EC90E00197F1F700C0000080E387DFCF
S113014095E89A95F1F7000080E281DF85E88A95C9
S1130150F1F7000088E28FDF88E08DDF81E08BDF3C
S113016086E089DF8CE087DF0895CADF80E883DFDB
S113017081E690E0B7DF80EC7EDF88E690E0B2DFD6
S1090180FFCFF894FFCF4D
S1130186804C696E652031004C696E652032000032
S9030000FC
