S0130000427574746F6E44656275672E73726563AE
S113000012C021C020C01FC01EC01DC01CC01BC008
S11300101AC019C018C017C016C015C014C013C028
S113002012C011C010C011241FBECFE5D4E0DEBF42
S1130030CDBF20E0A0E6B0E001C01D92AB36B20710
S1130040E1F76DD077C0DCCF8091620090916300BE
S11300500196909363008093620010926100109265
S113006060008091660090916700892BF1F581E032
S113007090E0909367008093660022B30090640040
S113008002C0880F991F0A94E2F7822B82BB8091E9
S113009064009091650001969093650080936400DC
S11300A008971CF110926900109268002FEF12BAA1
S11300B08FE097E20197F1F700C0000022BB8FE0C8
S11300C097E20197F1F700C00000809168009091D9
S11300D06900019690936900809368000A973CF345
S11300E0109265001092640012BA1092630010928C
S11300F06200089580916000909161000196909350
S1130100610080936000853F914044F01092670045
S11301101092660010926100109260000895A098F9
S1130120A89A8FEF81BB12BA989902C08DDFFCCFD9
S10B0130E1DFFACFF894FFCFE0
S9030000FC
