:1000000012C024C023C022C021C020C01FC01EC0F7
:100010001DC01CC01BC01AC019C018C017C016C014
:1000200015C014C013C011241FBECFE5D4E0DEBF3D
:10003000CDBF10E0A0E6B0E0E8E2F1E002C005903C
:100040000D92AE36B107D9F74BD06CC0D9CFE7E8E7
:10005000F3E13197F1F700C0000092B3807F9F7009
:10006000892B82BB939A93980895CF93C82FEFDF83
:100070008C2F8295807FEBDFCF9108959298F5DFEA
:100080000895929AF2DF08959298919893988A9A97
:10009000899A8B9A81B3806F81BB87E99AE3019734
:1000A000F1F700C0000088E3D2DF87E893E1019711
:1000B000F1F700C0000088E3CADF95E89A95F1F7F0
:1000C000000088E3C4DF88E2C2DF88E2D7DF88E08F
:1000D000D5DF81E0D3DF86E0D1DF8FE0CFDF089589
:1000E000CF93DF9300D0CDB7DEB7CEDF1A8219826F
:1000F000E981FA81E05AFF4F8081882391F0E981FC
:10010000FA81E05AFF4F8081BCDF89819A81019694
:100110009A838983E981FA81E05AFF4F80818111B6
:08012000EECFFFCFF894FFCFF2
:0E012800342D626974206176722D6763630066
:00000001FF
