S01500004B696E696768745F52696465722E73726563EC
S113000012C024C023C022C021C020C01FC01EC0F3
S11300101DC01CC01BC01AC019C018C017C016C010
S113002015C014C013C011241FBECFE5D4E0DEBF39
S1130030CDBF10E0A0E6B0E0E8E7F0E002C0059034
S11300400D92AE36B107D9F702D014C0D9CF8FEFD5
S113005081BB12BA2DE630E0E0E6F0E0819182BB8C
S11300608FE295E70197F1F700C00000E217F3076C
S10B0070A9F7F2CFF894FFCFC9
S11100780102040810204080402010080200FD
S9030000FC
