S015000053696D7561746F725F44656D6F2E73726563D7
S113000012C021C020C01FC01EC01DC01CC01BC008
S11300101AC019C018C017C016C015C014C013C028
S113002012C011C010C011241FBECFE5D4E0DEBF42
S1130030CDBF20E0A0E6B0E001C01D92A336B20718
S1130040E1F702D030C0DCCF8FEF81BB12BA10923F
S1130050620041E050E03FEF22B3CA010090620029
S113006002C0880F991F0A94E2F7822B82BB809109
S113007062008F5F80936200883070F31092610099
S11300801092600012BA32BB8091600090916100BE
S1130090019690936100809360000A979CF31092FC
S10D00A0620012BAD9CFF894FFCF22
S9030000FC
