:1000000012C021C020C01FC01EC01DC01CC01BC00C
:100010001AC019C018C017C016C015C014C013C02C
:1000200012C011C010C011241FBECFE5D4E0DEBF46
:10003000CDBF20E0A0E6B0E001C01D92AC37B20712
:10004000E1F7D4D00BC1DCCF70E06095709502C0B1
:10005000759567954A95E2F760FF2AC0BC01660F67
:10006000771FFB01E859FF4F408151814F5F5F4F80
:1000700051834083FB01E05AFF4F11821082241705
:100080003507ACF5FC01E858FF4F2081211107C06E
:10009000FC01E858FF4F21E0208381E00895880F9C
:1000A000991FFC01E859FF4F1182108280E00895EA
:1000B000BC01660F771FFB01E05AFF4F4081518161
:1000C0004F5F5F4F51834083FB01E859FF4F11821F
:1000D0001082241735076CF4FC01E858FF4F10829A
:1000E000FB01E05AFF4F1182108280E0089580E00A
:1000F000089580E00895009769F442B321E030E06C
:100100000090700002C0220F331F0A94E2F7242BE4
:1001100022BB22C08330910569F448B321E030E06E
:100120000090760002C0220F331F0A94E2F7242BBE
:1001300028BB46C08130910579F412BAE0E7F0E0BF
:1001400011821082228133812F5F3F4F33832283BC
:100150002730310554F408958230910589F518BA95
:1001600010927700109276002BC02AE030E04FEF1B
:10017000009749F412BAEFE0F7E23197F1F700C0C7
:10018000000042BB0BC08330910549F518BAEFE07F
:10019000F7E23197F1F700C0000048BBEFE0F7E26B
:1001A0003197F1F700C000002150310909F7E0E76D
:1001B000F0E0118210821782168212BA18BA0895DE
:1001C000FC01EE0FFF1FE059FF4F208131812F5FAF
:1001D0003F4F31832083273031053CF60895EFE00F
:1001E000F7E23197F1F700C00000D8CF8FEF87BB5F
:1001F00018BA81BB12BA14BA85BB63B324E630E0E7
:1002000040E080E090E020DF882319F080E090E07B
:1002100072DF63B324E630E041E081E090E014DF78
:10022000882319F081E090E066DF63B324E630E0D4
:1002300042E082E090E008DF882319F082E090E05D
:100240005ADF63B324E630E043E083E090E0FCDE75
:10025000882399F283E090E04EDFCFCFF894FFCF70
:00000001FF
